{
  "contractName": "AjToken",
  "abi": [
    {
      "constant": true,
      "inputs": [],
      "name": "totalSupply",
      "outputs": [
        {
          "name": "",
          "type": "uint256"
        }
      ],
      "payable": false,
      "stateMutability": "view",
      "type": "function"
    },
    {
      "inputs": [],
      "payable": false,
      "stateMutability": "nonpayable",
      "type": "constructor"
    }
  ],
  "bytecode": "0x608060405234801561001057600080fd5b50620f4240600081905550609e806100296000396000f300608060405260043610603f576000357c0100000000000000000000000000000000000000000000000000000000900463ffffffff16806318160ddd146044575b600080fd5b348015604f57600080fd5b506056606c565b6040518082815260200191505060405180910390f35b600054815600a165627a7a72305820d7ac706f005c401dda8980666dcac13a8ffa973e66d18734b2069d14c00f25f30029",
  "source": "pragma solidity ^0.4.2;\r\n\r\n/**\r\n * The AjToken contract does this and that...\r\n */\r\ncontract AjToken {\r\n\r\n\t//constructor\r\n\tuint256 public totalSupply;\r\n\r\n\tfunction AjToken () public {\r\n\t\ttotalSupply = 1000000;\r\n\t}\t\r\n\t//set the total number of Tokens\r\n\t//Read the total number of Tokens\r\n}\r\n\r\n\r\n\r\n\r\n",
  "sourcePath": "D:\\Blockchain projects\\TokenSale\\contracts\\AjToken.sol",
  "compiler": {
    "name": "solc",
    "version": "0.4.24+commit.e67f0147.Emscripten.clang"
  },
  "schemaVersion": "2.0.1",
  "updatedAt": "2018-09-13T08:56:40.992Z"
}