{
  "contractName": "AjToken",
  "abi": [
    {
      "constant": true,
      "inputs": [],
      "name": "name",
      "outputs": [
        {
          "name": "",
          "type": "string"
        }
      ],
      "payable": false,
      "stateMutability": "view",
      "type": "function"
    },
    {
      "constant": true,
      "inputs": [],
      "name": "totalSupply",
      "outputs": [
        {
          "name": "",
          "type": "uint256"
        }
      ],
      "payable": false,
      "stateMutability": "view",
      "type": "function"
    },
    {
      "constant": true,
      "inputs": [],
      "name": "Symbol",
      "outputs": [
        {
          "name": "",
          "type": "string"
        }
      ],
      "payable": false,
      "stateMutability": "view",
      "type": "function"
    },
    {
      "constant": true,
      "inputs": [
        {
          "name": "",
          "type": "address"
        }
      ],
      "name": "balanceOf",
      "outputs": [
        {
          "name": "",
          "type": "uint256"
        }
      ],
      "payable": false,
      "stateMutability": "view",
      "type": "function"
    },
    {
      "inputs": [
        {
          "name": "_initialSupply",
          "type": "uint256"
        }
      ],
      "payable": false,
      "stateMutability": "nonpayable",
      "type": "constructor"
    }
  ],
  "bytecode": "0x60806040526040805190810160405280600881526020017f416a20546f6b656e0000000000000000000000000000000000000000000000008152506000908051906020019061004f92919061011c565b506040805190810160405280600281526020017f414a0000000000000000000000000000000000000000000000000000000000008152506001908051906020019061009b92919061011c565b503480156100a857600080fd5b5060405160208061055f8339810180604052810190808051906020019092919050505080600360003373ffffffffffffffffffffffffffffffffffffffff1673ffffffffffffffffffffffffffffffffffffffff1681526020019081526020016000208190555080600281905550506101c1565b828054600181600116156101000203166002900490600052602060002090601f016020900481019282601f1061015d57805160ff191683800117855561018b565b8280016001018555821561018b579182015b8281111561018a57825182559160200191906001019061016f565b5b509050610198919061019c565b5090565b6101be91905b808211156101ba5760008160009055506001016101a2565b5090565b90565b61038f806101d06000396000f300608060405260043610610062576000357c0100000000000000000000000000000000000000000000000000000000900463ffffffff16806306fdde031461006757806318160ddd146100f75780633045aaf31461012257806370a08231146101b2575b600080fd5b34801561007357600080fd5b5061007c610209565b6040518080602001828103825283818151815260200191508051906020019080838360005b838110156100bc5780820151818401526020810190506100a1565b50505050905090810190601f1680156100e95780820380516001836020036101000a031916815260200191505b509250505060405180910390f35b34801561010357600080fd5b5061010c6102a7565b6040518082815260200191505060405180910390f35b34801561012e57600080fd5b506101376102ad565b6040518080602001828103825283818151815260200191508051906020019080838360005b8381101561017757808201518184015260208101905061015c565b50505050905090810190601f1680156101a45780820380516001836020036101000a031916815260200191505b509250505060405180910390f35b3480156101be57600080fd5b506101f3600480360381019080803573ffffffffffffffffffffffffffffffffffffffff16906020019092919050505061034b565b6040518082815260200191505060405180910390f35b60008054600181600116156101000203166002900480601f01602080910402602001604051908101604052809291908181526020018280546001816001161561010002031660029004801561029f5780601f106102745761010080835404028352916020019161029f565b820191906000526020600020905b81548152906001019060200180831161028257829003601f168201915b505050505081565b60025481565b60018054600181600116156101000203166002900480601f0160208091040260200160405190810160405280929190818152602001828054600181600116156101000203166002900480156103435780601f1061031857610100808354040283529160200191610343565b820191906000526020600020905b81548152906001019060200180831161032657829003601f168201915b505050505081565b600360205280600052604060002060009150905054815600a165627a7a723058207a955dde29842a27a2a1245d03826599811f2b4f10e3291951a3b94da65d77890029",
  "source": "pragma solidity ^0.4.2;\r\n\r\n/**\r\n * The AjToken contract does this and that...\r\n */\r\ncontract AjToken {\r\n\t//Name\r\n\tstring public name = \"Aj Token\";\r\n\t//Symbol\r\n\tstring public Symbol = \"AJ\";\r\n\t//constructor\r\n\tuint256 public totalSupply;\r\n\r\n\t/*function AjToken (uint256 _initialSupply) public {\r\n\t\ttotalSupply = _initialSupply;\r\n\t}*/\t\r\n    mapping (address => uint256) public balanceOf;\r\n    \r\n\tconstructor (uint256 _initialSupply) public {\r\n\t\tbalanceOf[msg.sender] = _initialSupply; \r\n\t\ttotalSupply = _initialSupply;\r\n\t\t//allocate the totalSupply\r\n\t}\t\r\n\r\n\r\n\t//set the total number of Tokens\r\n\t//Read the total number of Tokens\r\n}\r\n\r\n\r\n\r\n\r\n",
  "sourcePath": "D:\\Blockchain projects\\TokenSale\\contracts\\AjToken.sol",
  "compiler": {
    "name": "solc",
    "version": "0.4.24+commit.e67f0147.Emscripten.clang"
  },
  "schemaVersion": "2.0.1",
  "updatedAt": "2018-09-13T10:25:55.191Z"
}